:100000000128F82F5C2F752F912FA52FC12FDA2FE4
:0C001000DA2EE02EE62EE92EEF2EF52E63
:100D1A00F308031D080076087504031DA72E270093
:100D2A009101083092009301630000000000023034
:100D3A0027009100023092009301E830F500033059
:100D4A00F6000800FF30F507FF30F63D08003A309C
:100D5A0021009900FF30950024008C0123008C01AA
:100D6A0020008C010A3021008C00023027009100FB
:100D7A000230920008308B00483020009C007C3002
:100D8A009B0091101C15F701F70AF401F301E830F2
:100D9A00F5000330F6002000911CD02E91108D260C
:100DAA000C275B27D926D02E012F20000C128C127B
:100DBA000C110C10080020000C168C160C110C10CB
:100DCA00080020000C15080020000C128C160C11CB
:100DDA000C10080020000C128C160C110C140800C0
:100DEA0020000C168C120C110C10080020000C129A
:100DFA008C120C110C1008007308840006300402CF
:100E0A000318FB2E80310830040782000800F20123
:100E1A0020008C1D182FF701F70A7408F8007808CB
:100E2A00F200F40108007708013A031D202FF701A8
:100E3A00F001F10108007108803AF8008230780266
:100E4A00031D292FBC307002031808000130F00777
:100E5A000030F13D033070067104031D372FF40191
:100E6A00F40A080001307106031D3D2F2C3070066C
:100E7A00031D4D2F73080319482F0230F800780814
:100E8A00F200F40108000230F8007808F4000800C3
:100E9A0002307106031D532FBC307006031D080073
:100EAA000330F8007808F200F4010800ED2F720808
:100EBA00013A031D632FF301F30A08007208023A8C
:100ECA00031D6C2F0530F8007808F300080072083B
:100EDA00033A031D08000330F8007808F3000800FD
:100EEA007208013A031D822F0230F8007808F300D5
:100EFA000A30F5000030F600080002307202031CC6
:100F0A0008000430F8007808F300270093015830ED
:100F1A00F5000230F600080076087504031DA02FBC
:100F2A0020000C1E9B2FF301F30A08000330F8007F
:100F3A007808F3000800FF30F507FF30F63D080097
:100F4A007208013A031DB22F0230F8007808F30044
:100F5A000A30F5000030F600080002307202031C65
:100F6A0008000430F8007808F3002700930158308D
:100F7A00F5000230F6000800270013080319CB2FEA
:100F8A0093015830F5000230F6000800760875041F
:100F9A00031DD52FF301E830F5000330F6000800F1
:100FAA00FF30F507FF30F63D08007208013A031DCD
:100FBA00E12FF301F30A080002307202031C080051
:100FCA00F301E830F5000330F6000800F3010800E9
:100FDA0073088400063004020318EB2F80310230B4
:100FEA00040782000800F001F101F201F301F401A3
:060FFA007E102000AC2E69
:020000040001F9
:04000E0084CFFFDEBE
:00000001FF
